E130001234UNAPEC                        00000545000015/05/2025
D0012345678DOP1234567890123456789000024500QUINCENA            
D0023456789DOP9876543210987654321000030000QUINCENA            
S000000004